:100000000C9462000C949F030C9478030C948A0067
:100010000C948A000C948A000C948A000C948A0038
:100020000C948A000C948A000C948A000C948A0028
:100030000C948A000C948A000C948A000C948A0018
:100040000C942E030C948A000C94EC030C94C603BD
:100050000C948A000C948A000C948A000C948A00F8
:100060000C948A000C948A000000000024002700F1
:100070002A0000000000250028002B0000000000DE
:1000800023002600290004040404040404040202DA
:100090000202020203030303030301020408102007
:1000A0004080010204081020010204081020000012
:1000B0000008000201000003040700000000000027
:1000C0000000BC0711241FBECFEFD8E0DEBFCDBFBC
:1000D00011E0A0E0B1E0EEE2F5E102C005900D9282
:1000E000A233B107D9F721E0A2E3B1E001C01D922C
:1000F000A23FB207E1F710E0C2E6D0E004C02197CA
:10010000FE010E947009C136D107C9F70E941E0482
:100110000C94950A0C940000833081F028F481300F
:1001200099F08230A9F008958730A9F08830C9F09D
:100130008430B1F4809180008F7D03C08091800075
:100140008F7780938000089584B58F7784BD08955C
:1001500084B58F7DFBCF8091B0008F778093B00006
:1001600008958091B0008F7DF9CFCF93DF93282F32
:1001700030E0F901E255FF4F8491F901E656FF4F57
:10018000D491F901EA57FF4FC491CC23A1F081111A
:100190000E948C00EC2FF0E0EE0FFF1FE458FF4FA1
:1001A000A591B491EC91ED2381E090E009F480E019
:1001B000DF91CF91089580E090E0FACF1F93CF9325
:1001C000DF93282F30E0F901E255FF4F8491F901C8
:1001D000E656FF4FD491F901EA57FF4FC491CC2363
:1001E000A9F0162F81110E948C00EC2FF0E0EE0F89
:1001F000FF1FEE58FF4FA591B4918FB7F894EC9183
:10020000111108C0D095DE23DC938FBFDF91CF9111
:100210001F910895DE2BF8CFCF93DF9390E0FC0180
:10022000E656FF4F24918A579F4FFC018491882303
:10023000D1F090E0880F991FFC01E859FF4FA5917C
:10024000B491FC01EE58FF4FC591D49161110EC0DD
:100250009FB7F8948C91E22FE0958E238C932881A0
:10026000E223E8839FBFDF91CF9108958FB7F89481
:10027000EC91E22BEC938FBFF6CF0895AF92BF9233
:10028000CF92DF92EF92FF920F931F93CF93DF9362
:100290006C017B018B01040F151FEB015E01AE1891
:1002A000BF08C017D10759F06991D601ED91FC91B3
:1002B0000190F081E02DC6010995892B79F7C501E0
:1002C000DF91CF911F910F91FF90EF90DF90CF9032
:1002D000BF90AF900895FC01538D448D252F30E0E1
:1002E000842F90E0821B930B541710F0CF96089543
:1002F00001970895FC01918D828D981761F0A28D70
:10030000AE0FBF2FB11D5D968C91928D9F5F9F7335
:10031000928F90E008958FEF9FEF0895FC01918DEB
:10032000828D981731F0828DE80FF11D858D90E058
:1003300008958FEF9FEF08952FB7F89480915101A2
:1003400090915201A0915301B09154012FBF80931D
:100350005D0190935E01A0935F01B093600185E51C
:1003600091E00E948E0197FF26C02FB7F8948091EC
:10037000510190915201A0915301B09154012FBFAE
:1003800040915D0150915E0160915F01709160014B
:10039000841B950BA60BB70B4091590150915A0144
:1003A00060915B0170915C0184179507A607B70700
:1003B000B0F28FEF9FEF0895FC01918D228D892F70
:1003C00090E0805C9F4F821B91098F73992708955D
:1003D00085E591E00E94DC0121E0892B09F420E011
:1003E000822F089580E090E0892B29F00E94E80197
:1003F00081110C9400000895FC01A48DA80FB92F61
:10040000B11DA35ABF4F2C91848D90E001968F733C
:100410009927848FA689B7892C93A089B1898C915B
:10042000837080648C93938D848D981306C00288AA
:10043000F389E02D80818F7D80830895EF92FF9274
:100440000F931F93CF93DF93EC0181E0888F9B8DF7
:100450008C8D98131AC0E889F989808185FF15C0B1
:100460009FB7F894EE89FF896083E889F9898081D4
:100470008370806480839FBF81E090E0DF91CF91A3
:100480001F910F91FF90EF900895F62E0B8D10E0C5
:100490000F5F1F4F0F731127E02E8C8D8E110CC034
:1004A0000FB607FCFACFE889F989808185FFF5CF7F
:1004B000CE010E94FC01F1CFEB8DEC0FFD2FF11D61
:1004C000E35AFF4FF0829FB7F8940B8FEA89FB89BC
:1004D00080818062CFCFCF93DF93EC01888D88231A
:1004E000B9F0AA89BB89E889F9898C9185FD03C097
:1004F000808186FD0DC00FB607FCF7CF8C9185FF7C
:10050000F2CF808185FFEDCFCE010E94FC01E9CFC3
:10051000DF91CF910895CF93DF9382E00E94B500E1
:10052000EC0183E00E94B5002197C1F4892BC1F44E
:100530008091480190914901A0914A01B0914B01ED
:100540000196A11DB11D8093480190934901A0938C
:100550004A01B0934B01DF91CF910895019741F388
:100560008091480190914901A0914A01B0914B01BD
:100570000197A109B109E7CFFC0101900020E9F73B
:100580003197AF01481B590BBC0185E591E00C94F4
:100590003E018F929F92AF92BF920F931F93CF9382
:1005A000DF93CDB7DEB7A1970FB6F894DEBF0FBECD
:1005B000CDBF19A2423008F44AE08E010F5D1F4FF3
:1005C000842E912CB12CA12CA50194010E943F09ED
:1005D000E62FB901CA01EA30F4F4E05DD801EE93E8
:1005E0008D01232B242B252B79F790E080E01097A9
:1005F00019F0CD010E94BC02A1960FB6F894DEBF9F
:100600000FBECDBFDF91CF911F910F91BF90AF90E3
:100610009F908F900895E95CE1CFCF92DF92EF92A7
:10062000FF92CF93DF936B017C016DE285E591E052
:100630000E941E02EC0166277727CB016C197D0909
:100640008E099F094AE00E94C9028C0F9D1FDF910D
:10065000CF91FF90EF90DF90CF9008951F920F926F
:100660000FB60F9211242F933F938F939F93AF93C5
:10067000BF938091510190915201A0915301B0918B
:1006800054013091500123E0230F2D3758F5019686
:10069000A11DB11D209350018093510190935201EF
:1006A000A0935301B093540180914C0190914D015E
:1006B000A0914E01B0914F010196A11DB11D8093F3
:1006C0004C0190934D01A0934E01B0934F01BF9107
:1006D000AF919F918F913F912F910F900FBE0F90EF
:1006E0001F90189526E8230F0296A11DB11DD2CFA9
:1006F0001F920F920FB60F9211242F933F934F9397
:100700005F936F937F938F939F93AF93BF93EF9379
:10071000FF93E0910201F09103010995FF91EF91A0
:10072000BF91AF919F918F917F916F915F914F9109
:100730003F912F910F900FBE0F901F9018951F9211
:100740000F920FB60F9211242F933F934F935F9305
:100750006F937F938F939F93AF93BF93EF93FF9389
:10076000E0910001F09101010995FF91EF91BF9196
:10077000AF919F918F917F916F915F914F913F9139
:100780002F910F900FBE0F901F9018951F920F92F0
:100790000FB60F9211242F933F934F935F936F9354
:1007A0007F938F939F93AF93BF93EF93FF9385E5D1
:1007B00091E00E94FC01FF91EF91BF91AF919F9159
:1007C0008F917F916F915F914F913F912F910F90FA
:1007D0000FBE0F901F9018951F920F920FB60F9299
:1007E00011242F938F939F93EF93FF93E0916501D3
:1007F000F09166018081E0916B01F0916C0182FDC6
:100800001BC0908180916E018F5F8F7320916F016B
:10081000821741F0E0916E01F0E0EB5AFE4F958FA8
:1008200080936E01FF91EF919F918F912F910F9087
:100830000FBE0F901F9018958081F4CFCF93DF9358
:10084000CDB7DEB728970FB6F894DEBF0FBECDBF89
:10085000789484B5826084BD84B5816084BD85B59B
:10086000826085BD85B5816085BD80916E008160A7
:1008700080936E001092810080918100826080934D
:10088000810080918100816080938100809180004F
:100890008160809380008091B10084608093B1007A
:1008A0008091B00081608093B00080917A00846074
:1008B00080937A0080917A00826080937A008091A0
:1008C0007A00816080937A0080917A0080688093BA
:1008D0007A001092C100E0916501F091660182E01A
:1008E0008083E0916101F09162011082E0916301E7
:1008F000F09164018FEC808310926D01E0916901A9
:10090000F0916A0186E08083E0916701F0916801CF
:10091000808180618083E0916701F091680180812E
:1009200088608083E0916701F09168018081806830
:100930008083E0916701F091680180818F7D8083E1
:1009400060E082E00E940C0160E083E00E940C0104
:100950008BE892E0909301018093000180916900FF
:10096000836080936900E89A61E08AE00E940C014C
:1009700061E084E00E940C0161E085E00E940C01CE
:1009800086E191E00E94BC0280E291E00E94BC02FC
:1009900038EB232E30E0332E00E010E06091480168
:1009A0007091490180914A0190914B0197FF83C159
:1009B0000E940D0380E291E00E94BC022091480158
:1009C0003091490140914A0150914B01245C3F4FC5
:1009D0004F4F5F4FA0E3BDEF0E943A0928E730E098
:1009E00040E050E00E940D09CA01B90168597E4FEC
:1009F0008F4F9F4F0E94F007609344017093450111
:100A0000809346019093470185E591E00E94DC01C7
:100A1000181619060CF052C00E949C01FC0197FDAB
:100A200056C18D32910521F0C0970A9708F047C151
:100A3000C12CD12C76011982E130F105D9F0ED32CB
:100A4000F10509F441C1CF01C0970A9798F4AAE0D3
:100A5000B0E0A70196010E942C096F01FF0FEE087C
:100A6000FF08C60ED71EE81EF91E20E3C21AD108E1
:100A7000E108F10885E591E00E947A010E949C015D
:100A8000FC01C0970A97C0F2E130F105A9F2498153
:100A9000442341F0F094E094D094C094C11CD11C44
:100AA000E11CF11CC701B6010E94F00760934001F0
:100AB0007093410180934201909343016091400102
:100AC0007091410180914201909143010E94550A29
:100AD0002B019FB7F89480904C0190904D01A0900D
:100AE0004E01B0904F0186B5A89B07C08F3F29F0FB
:100AF0005FEF851A950AA50AB50A9FBFBA2CA92CE3
:100B0000982C8824880E911CA11CB11C22E0880C12
:100B1000991CAA1CBB1C2A95D1F780913C0190918D
:100B20003D01A0913E01B0913F01A5019401281B18
:100B3000390B4A0B5B0BCA01B9010E94F00720E098
:100B400034E244E759E40E94E3096B017C0180929E
:100B50003C0190923D01A0923E01B0923F01F89479
:100B60007894052C000C66087708C301B2010E9436
:100B7000F0079B01AC0160914401709145018091A7
:100B80004601909147010E9476090E94550A072E5E
:100B9000000C880B990B0E94F00769837A838B8382
:100BA0009C83209138013091390140913A01509154
:100BB0003B010E947609A70196010E94E3096D831B
:100BC0007E838F83988729813A814B815C81C7011D
:100BD000B6010E944F0820913401309135014091B7
:100BE0003601509137010E9477096B017C01C09258
:100BF0003401D0923501E0923601F092370120E0C5
:100C000030E040E251E469817A818B819C810E94CD
:100C10004F084B015C012DEC3CEC4CEC5CE36D812E
:100C20007E818F8198850E944F089B01AC01C50190
:100C3000B4010E9477094B015C012DEC3CEC4CECBB
:100C40005DE3C701B6010E944F089B01AC01C501DD
:100C5000B4010E9477094B015C017C016B01E894AF
:100C6000F7F820E030E04FE753E4C701B6010E94F7
:100C70008B0A20E030E0A90118160CF46CC1C50104
:100C8000B4010E94E90787FF72C14FEF5FEF5E83F7
:100C90004D83C701B6010E94550A4B017B0161E0FB
:100CA0008AE00E940C0181149104A9F460E08AE0BA
:100CB0000E94DE003CC04AE00E94C9027BCE85E56E
:100CC00091E00E947A01A8CE31E03983D3CEC12CC5
:100CD000D12C7601E7CE9FEF8916910411F461E0E3
:100CE000E6CFF1018491833009F475C050F481306E
:100CF000D1F0823009F46AC0F0E8EF16F1047CF715
:100D0000D5CF873009F471C0883009F476C08430BB
:100D100099F78091800080628093800090928B0090
:100D200080928A0004C084B5806884BD87BC2D8110
:100D30003E8161E02130310509F467C04D815E815B
:100D400060E04F3F5F4F09F060C084E00E94DE002A
:100D500061E085E00E94DE0029813A814B815C815F
:100D6000209338013093390140933A0150933B016D
:100D700077FE50C0C301B2010E940D0383E291E0EF
:100D80000E94BC02C0904401D0904501E090460111
:100D9000F0904701A7019601C701B6010E94900A91
:100DA0008823F1F185E291E00E94BC0280E291E0AB
:100DB0000E94BC020115110509F4F0CD0E94E80162
:100DC000882309F4EBCD0E940000E8CD84B5806251
:100DD00084BD88BCACCF8091800080688093800007
:100DE0009092890080928800A2CF8091B0008068A4
:100DF0008093B0008092B3009ACF8091B00080625F
:100E00008093B0008092B40092CF84E00E94DE0014
:100E100060E09FCF4AE0C301B2010E94C902AECF99
:100E200046015701E894B7F82FEF3FEF4FE75FE730
:100E3000C501B4010E94900A81110DC02FEF3FEF50
:100E40004FE75FE7C501B4010E94E90718161CF4DB
:100E500089E291E0A9CF2FEF3FEF4FE75FE4C701B1
:100E6000B6010E948B0A18161CF48DE291E09CCF0B
:100E70002FEF3FEF4FE75FECC701B6010E94E90794
:100E800087FDF3CF20E030E0A901C701B6010E9441
:100E9000E90787FF09C06DE285E591E00E941E0227
:100EA000F7FAF094F7F8F0942AE037ED43EA5BE3C1
:100EB000C701B6010E9477094B015C010E945C0AE0
:100EC0006B017C010E94EE079B01AC01C501B401DE
:100ED0000E9476094B015C014AE0C701B6010E94FD
:100EE000C9026EE285E591E00E941E0220E030E03A
:100EF00040E251E4C501B4010E944F084B015C017E
:100F00000E945C0A6B01F12CE12C4AE0C701B6019A
:100F10000E94C902C701B6010E94EE079B01AC0105
:100F2000C501B4010E94760920E030E040E251E4BE
:100F30000E944F080E945C0A90E080E04AE00E9414
:100F4000C90234CF61E08AE00E940C014FEF5FEFED
:100F50005E834D83C4CEC501B4010E94E90787FDBD
:100F6000F1CFC12CD12C8FE7E82E83E4F82E81E05D
:100F700090E09E838D838DCEE5E5F1E013821282B1
:100F800088EE93E0A0E0B0E084839583A683B783E6
:100F900088E091E09183808385EC90E09587848759
:100FA00084EC90E09787868780EC90E0918B808B33
:100FB00081EC90E0938B828B82EC90E0958B848B1C
:100FC00086EC90E0978B868B118E128E138E148E8A
:100FD00008950E942B0808F481E00895E89409C060
:100FE00097FB3EF490958095709561957F4F8F4F5C
:100FF0009F4F9923A9F0F92F96E9BB279395F69572
:10100000879577956795B795F111F8CFFAF4BB0FEF
:1010100011F460FF1BC06F5F7F4F8F4F9F4F16C053
:10102000882311F096E911C0772321F09EE8872FDD
:10103000762F05C0662371F096E8862F70E060E099
:101040002AF09A95660F771F881FDAF7880F969512
:10105000879597F90895990F0008550FAA0BE0E8B6
:10106000FEEF16161706E807F907C0F0121613066A
:10107000E407F50798F0621B730B840B950B39F4AA
:101080000A2661F0232B242B252B21F408950A2610
:1010900009F4A140A6958FEF811D811D08950E943E
:1010A00062080C94D3080E94C50838F00E94CC084E
:1010B00020F0952311F00C94BC080C94C208112464
:1010C0000C9407090E94E40870F3959FC1F3950FF3
:1010D00050E0551F629FF001729FBB27F00DB11DBC
:1010E000639FAA27F00DB11DAA1F649F6627B00D4C
:1010F000A11D661F829F2227B00DA11D621F739F35
:10110000B00DA11D621F839FA00D611D221F749F42
:101110003327A00D611D231F849F600D211D822F89
:10112000762F6A2F11249F5750409AF0F1F08823B0
:101130004AF0EE0FFF1FBB1F661F771F881F9150DD
:101140005040A9F79E3F510580F00C94BC080C94C8
:1011500007095F3FE4F3983ED4F38695779567954A
:10116000B795F795E7959F5FC1F7FE2B880F911D07
:101170009695879597F9089597F99F6780E870E0AD
:1011800060E008959FEF80EC089500240A941616FD
:10119000170618060906089500240A941216130665
:1011A000140605060895092E0394000C11F48823F3
:1011B00052F0BB0F40F4BF2B11F460FF04C06F5F0F
:1011C0007F4F8F4F9F4F089557FD9058440F551FE5
:1011D00059F05F3F71F04795880F97FB991F61F0B9
:1011E0009F3F79F087950895121613061406551F30
:1011F000F2CF4695F1DF08C0161617061806991F9C
:10120000F1CF86957105610508940895E894BB2790
:1012100066277727CB0197F90895052E97FB1EF4D3
:1012200000940E94240957FD07D00E943F0907FC43
:1012300003D04EF40C942409509540953095219597
:101240003F4F4F4F5F4F08959095809570956195F2
:101250007F4F8F4F9F4F08950E946109A59F900D6A
:10126000B49F900DA49F800D911D11240895B7FF88
:101270000C942C090E942C09821B930B0895A1E267
:101280001A2EAA1BBB1BFD010DC0AA1FBB1FEE1F00
:10129000FF1FA217B307E407F50720F0A21BB30B4B
:1012A000E40BF50B661F771F881F991F1A9469F7C7
:1012B00060957095809590959B01AC01BD01CF0123
:1012C0000895A29FB001B39FC001A39F700D811D1F
:1012D0001124911DB29F700D811D1124911D08953F
:1012E000EE0FFF1F0590F491E02D09945058BB2795
:1012F000AA270E948E090C94D3080E94C50838F0D2
:101300000E94CC0820F039F49F3F19F426F40C9485
:10131000C2080EF4E095E7FB0C94BC08E92F0E948C
:10132000E40858F3BA17620773078407950720F09B
:1013300079F4A6F50C9406090EF4E0950B2EBA2F5D
:10134000A02D0B01B90190010C01CA01A0011124CB
:10135000FF27591B99F0593F50F4503E68F11A1677
:10136000F040A22F232F342F4427585FF3CF469508
:1013700037952795A795F0405395C9F77EF41F162A
:10138000BA0B620B730B840BBAF09150A1F0FF0FF4
:10139000BB1F661F771F881FC2F70EC0BA0F621FE0
:1013A000731F841F48F4879577956795B795F795D0
:1013B0009E3F08F0B0CF9395880F08F09927EE0F65
:1013C0009795879508950E94F7090C94D3080E9479
:1013D000CC0858F00E94C50840F029F45F3F29F07E
:1013E0000C94BC0851110C9407090C94C2080E947B
:1013F000E40868F39923B1F3552391F3951B550B3A
:10140000BB27AA2762177307840738F09F5F5F4FD7
:10141000220F331F441FAA1FA9F335D00E2E3AF016
:10142000E0E832D091505040E695001CCAF72BD02E
:10143000FE2F29D0660F771F881FBB1F261737077F
:101440004807AB07B0E809F0BB0B802DBF01FF27B1
:1014500093585F4F3AF09E3F510578F00C94BC08CA
:101460000C9407095F3FE4F3983ED4F38695779593
:101470006795B795F7959F5FC9F7880F911D96956A
:10148000879597F90895E1E0660F771F881FBB1FC6
:10149000621773078407BA0720F0621B730B840B73
:1014A000BA0BEE1F88F7E09508950E945C0A6894D5
:1014B000B1110C94070908950E94EC0888F09F5719
:1014C00098F0B92F9927B751B0F0E1F0660F771F68
:1014D000881F991F1AF0BA95C9F714C0B13091F05E
:1014E0000E940609B1E008950C940609672F782F31
:1014F0008827B85F39F0B93FCCF386957795679523
:10150000B395D9F73EF490958095709561957F4F8E
:101510008F4F9F4F08950E942B0808F48FEF089576
:0E1520000E942B08880B990B0895F894FFCFBA
:10152E003D013D01000000001E023E016B016B02F9
:10153E00DC017A018E01616E676C6520706F73003D
:10154E000D0A0020006E616E00696E66006F766691
:02155E0000008B
:00000001FF
